:100000000C942A000C9447000C9447000C94470071
:100010000C9447000C9447000C9447000C94470044
:100020000C9447000C9447000C9447000C94470034
:100030000C9447000C9447000C9447000C94470024
:100040000C9447000C9447000C9447000C94470014
:100050000C94470011241FBECFE5D8E0DEBFCDBF12
:1000600010E0A0E6B0E0EAE7F6E002C005900D92ED
:10007000A036B107D9F710E0A0E6B0E001C01D92AC
:10008000A036B107E1F70E9449000C943B030C94A1
:1000900000000E946F0084E460E00E942C0384E46E
:1000A00061E00E942C0384E462E00E942C0384E45B
:1000B00063E00E942C0384E464E00E942C0384E447
:1000C00065E00E942C0384E466E00E942C0384E433
:1000D00067E00E942C030E94740082BBFCCF3E9A12
:1000E000379A329A319A0895369A349BFECF349AD1
:1000F00084B190E045B1342F20E0822B932B0895FA
:10010000823451F1833420F4813409F07BC007C07C
:10011000833409F43EC0843409F074C057C04130C0
:1001200069F42AB381E090E0AC0102C0440F551F8E
:100130006A95E2F7BA01622B6ABB08952AB381E09F
:1001400090E0AC0102C0440F551F6A95E2F7BA0176
:10015000609562236ABB0895413069F427B381E05A
:1001600090E0AC0102C0440F551F6A95E2F7BA0156
:10017000622B67BB089527B381E090E0AC0102C019
:10018000440F551F6A95E2F7BA016095622367BB79
:100190000895413069F424B381E090E0AC0102C0DD
:1001A000440F551F6A95E2F7BA01622B64BB0895AC
:1001B00024B381E090E0AC0102C0440F551F6A9562
:1001C000E2F7BA016095622364BB0895413069F497
:1001D00021B381E090E0AC0102C0440F551F6A9545
:1001E000E2F7BA01622B61BB089521B381E090E090
:1001F000AC0102C0440F551F6A95E2F7BA01609541
:10020000622361BB0895823451F1833420F4813438
:1002100009F07BC007C0833409F43EC0843409F080
:1002200074C057C0413069F42BB381E090E0AC0159
:1002300002C0440F551F6A95E2F7BA01622B6BBBEF
:1002400008952BB381E090E0AC0102C0440F551F2C
:100250006A95E2F7BA01609562236BBB089541305D
:1002600069F428B381E090E0AC0102C0440F551F4F
:100270006A95E2F7BA01622B68BB089528B381E062
:1002800090E0AC0102C0440F551F6A95E2F7BA0135
:100290006095622368BB0895413069F425B381E01D
:1002A00090E0AC0102C0440F551F6A95E2F7BA0115
:1002B000622B65BB089525B381E090E0AC0102C0DC
:1002C000440F551F6A95E2F7BA016095622365BB3A
:1002D0000895413069F422B381E090E0AC0102C09E
:1002E000440F551F6A95E2F7BA01622B62BB08956D
:1002F00022B381E090E0AC0102C0440F551F6A9523
:10030000E2F7BA016095622362BB08958234F1F08E
:10031000833420F4813409F04FC006C0833441F1A6
:10032000843409F049C036C029B381E090E0062E3C
:1003300002C0880F991F0A94E2F730E082239323CA
:1003400002C0959587956A95E2F7089526B381E0F6
:1003500090E0062E02C0880F991F0A94E2F730E061
:100360008223932302C0959587956A95E2F70895B5
:1003700023B381E090E0062E02C0880F991F0A94F3
:10038000E2F730E08223932302C0959587956A9522
:10039000E2F7089520B381E090E0062E02C0880FB6
:1003A000991F0A94E2F730E08223932302C09595C7
:1003B00087956A95E2F7089580E008958234B9F050
:1003C000833418F48134C9F505C08334E9F08434EA
:1003D000A1F527C02BB381E090E0AC0102C0440F2F
:1003E000551F6A95E2F7BA0162276BBB089528B3DF
:1003F00081E090E0AC0102C0440F551F6A95E2F71E
:10040000BA01622768BB089525B381E090E0AC0192
:1004100002C0440F551F6A95E2F7BA01622765BB17
:10042000089522B381E090E0AC0102C0440F551F53
:100430006A95E2F7BA01622762BB0895823461F0DF
:10044000833418F4813469F405C0833439F084347A
:1004500041F406C06ABB089567BB089564BB089564
:1004600061BB0895823461F0833418F4813469F4F7
:1004700005C0833439F0843441F406C06BBB089561
:1004800068BB089565BB089562BB0895823461F02E
:10049000833418F4813471F405C0833439F0843422
:1004A00049F406C089B3089586B3089583B30895C7
:1004B00080B3089580E00895823451F1833420F4AC
:1004C000813409F07BC007C0833409F43EC0843412
:1004D00009F074C057C0413069F42BB381E090E05B
:1004E000AC0102C0440F551F6A95E2F7BA01622BB6
:1004F0006BBB08952BB381E090E0AC0102C0440FC8
:10050000551F6A95E2F7BA01609562236BBB0895A7
:10051000413069F428B381E090E0AC0102C0440F9F
:10052000551F6A95E2F7BA01622B68BB089528B39C
:1005300081E090E0AC0102C0440F551F6A95E2F7DC
:10054000BA016095622368BB0895413069F425B310
:1005500081E090E0AC0102C0440F551F6A95E2F7BC
:10056000BA01622B65BB089525B381E090E0AC0130
:1005700002C0440F551F6A95E2F7BA0160956223E5
:1005800065BB0895413069F422B381E090E0AC018D
:1005900002C0440F551F6A95E2F7BA01622B62BB95
:1005A000089522B381E090E0AC0102C0440F551FD2
:1005B0006A95E2F7BA016095622362BB08956F7095
:1005C000823481F0833418F48134F1F405C083342B
:1005D00079F08434C9F412C08BB3807F8BBB8BB3AA
:1005E000862B8BBB88B3807F88BB88B3862B88BB68
:1005F00085B3807F85BB85B3862B85BB82B3807F27
:1006000082BB82B3682B62BB08956295607F82349F
:1006100081F0833418F48134F1F405C0833479F027
:100620008434C9F412C08BB38F708BBB8BB3862B11
:100630008BBB88B38F7088BB88B3862B88BB85B390
:100640008F7085BB85B3862B85BB82B38F7082BBD1
:1006500082B3682B62BB089541E00E948000089538
:1006600041E00E940301089540E00E9403010895C3
:0A0670000E94DE010895F894FFCF08
:00000001FF
