S015000074726166666963206C696768742E73726563F8
S11300000C942A000C9447000C9447000C9447006D
S11300100C9447000C9447000C9447000C94470040
S11300200C9447000C9447000C94F5040C9447007E
S11300300C9447000C9447000C9447000C94470020
S11300400C9447000C9447000C9447000C94470010
S11300500C94470011241FBECFE5D8E0DEBFCDBF0E
S113006010E0A0E6B0E0E8E2FAE002C005900D92EC
S1130070A839B107D9F710E0A8E9B0E001C01D9292
S1130080A939B107E1F70E942C040C9412050C94D1
S11300900000823451F1833420F4813409F07BC0B0
S11300A007C0833409F43EC0843409F074C057C0D7
S11300B0413069F42AB381E090E0AC0102C0440FFE
S11300C0551F6A95E2F7BA01622B6ABB08952AB3F9
S11300D081E090E0AC0102C0440F551F6A95E2F73D
S11300E0BA01609562236ABB0895413069F427B36D
S11300F081E090E0AC0102C0440F551F6A95E2F71D
S1130100BA01622B67BB089527B381E090E0AC018C
S113011002C0440F551F6A95E2F7BA016095622345
S113012067BB0895413069F424B381E090E0AC01E9
S113013002C0440F551F6A95E2F7BA01622B64BBF3
S1130140089524B381E090E0AC0102C0440F551F30
S11301506A95E2F7BA016095622364BB0895413061
S113016069F421B381E090E0AC0102C0440F551F53
S11301706A95E2F7BA01622B61BB089521B381E06D
S113018090E0AC0102C0440F551F6A95E2F7BA0132
S11301906095622361BB0895823451F1833420F465
S11301A0813409F07BC007C0833409F43EC0843431
S11301B009F074C057C0413069F42BB381E090E07A
S11301C0AC0102C0440F551F6A95E2F7BA01622BD5
S11301D06BBB08952BB381E090E0AC0102C0440FE7
S11301E0551F6A95E2F7BA01609562236BBB0895C7
S11301F0413069F428B381E090E0AC0102C0440FBF
S1130200551F6A95E2F7BA01622B68BB089528B3BB
S113021081E090E0AC0102C0440F551F6A95E2F7FB
S1130220BA016095622368BB0895413069F425B32F
S113023081E090E0AC0102C0440F551F6A95E2F7DB
S1130240BA01622B65BB089525B381E090E0AC014F
S113025002C0440F551F6A95E2F7BA016095622304
S113026065BB0895413069F422B381E090E0AC01AC
S113027002C0440F551F6A95E2F7BA01622B62BBB4
S1130280089522B381E090E0AC0102C0440F551FF1
S11302906A95E2F7BA016095622362BB08958234DD
S11302A0F1F0833420F4813409F04FC006C0833464
S11302B041F1843409F049C036C029B381E090E0AB
S11302C0062E02C0880F991F0A94E2F730E08223B9
S11302D0932302C0959587956A95E2F7089526B30E
S11302E081E090E0062E02C0880F991F0A94E2F77D
S11302F030E08223932302C0959587956A95E2F7AF
S1130300089523B381E090E0062E02C0880F991F60
S11303100A94E2F730E08223932302C095958795EF
S11303206A95E2F7089520B381E090E0062E02C0BA
S1130330880F991F0A94E2F730E08223932302C0C6
S1130340959587956A95E2F7089580E0089582343B
S1130350B9F0833418F48134C9F505C08334E9F065
S11303608434A1F527C02BB381E090E0AC0102C036
S1130370440F551F6A95E2F7BA0162276BBB0895D3
S113038028B381E090E0AC0102C0440F551F6A9588
S1130390E2F7BA01622768BB089525B381E090E0D3
S11303A0AC0102C0440F551F6A95E2F7BA016227F7
S11303B065BB089522B381E090E0AC0102C0440F14
S11303C0551F6A95E2F7BA01622762BB0895823429
S11303D061F0833418F4813469F405C0833439F04E
S11303E0843441F406C06ABB089567BB089564BBB6
S11303F0089561BB0895823461F0833418F4813424
S113040069F405C0833439F0843441F406C06BBB0D
S1130410089568BB089565BB089562BB089582344E
S113042061F0833418F4813471F405C0833439F0F5
S1130430843449F406C089B3089586B3089583B318
S1130440089580B3089580E00895823451F183348F
S113045020F4813409F07BC007C0833409F43EC022
S1130460843409F074C057C0413069F42BB381E07F
S113047090E0AC0102C0440F551F6A95E2F7BA013F
S1130480622B6BBB08952BB381E090E0AC0102C0FA
S1130490440F551F6A95E2F7BA01609562236BBB5E
S11304A00895413069F428B381E090E0AC0102C0C2
S11304B0440F551F6A95E2F7BA01622B68BB089591
S11304C028B381E090E0AC0102C0440F551F6A9547
S11304D0E2F7BA016095622368BB0895413069F47C
S11304E025B381E090E0AC0102C0440F551F6A952A
S11304F0E2F7BA01622B65BB089525B381E090E071
S1130500AC0102C0440F551F6A95E2F7BA01609529
S1130510622365BB0895413069F422B381E090E021
S1130520AC0102C0440F551F6A95E2F7BA01622B71
S113053062BB089522B381E090E0AC0102C0440F95
S1130540551F6A95E2F7BA016095622362BB08956C
S11305506F70823481F0833418F48134F1F405C06F
S1130560833479F08434C9F412C08BB3807F8BBB9D
S11305708BB3862B8BBB88B3807F88BB88B3862BD9
S113058088BB85B3807F85BB85B3862B85BB82B34F
S1130590807F82BB82B3682B62BB08956295607FC3
S11305A0823481F0833418F48134F1F405C0833447
S11305B079F08434C9F412C08BB38F708BBB8BB3C6
S11305C0862B8BBB88B38F7088BB88B3862B88BB84
S11305D085B38F7085BB85B3862B85BB82B38F7043
S11305E082BB82B3682B62BB089582E460E041E081
S11305F00E94CC008FE99FE00197F1F700C0000052
S113060082E460E040E00E94CC008FE99FE0019723
S1130610F1F700C000000895682F81E40E94FB01F7
S113062082E461E040E00E94CC000E94F5028FEC7D
S113063097E00197F1F700C0000008958FEF91EE65
S1130640A4E081509040A040E1F700C0000081E4A4
S113065060E041E00E94490081E461E041E00E94E1
S1130660490081E462E041E00E94490081E463E0E2
S113067041E00E94490081E464E041E00E944900B5
S113068081E465E041E00E94490081E466E041E0E4
S11306900E94490081E467E041E00E94490082E44D
S11306A060E041E00E94490082E462E041E00E948F
S11306B0490082E461E041E00E94490082E462E092
S11306C040E00E94CC0088E30E940C03AFECB7E04A
S11306D01197F1F700C000008CE00E940C038FEC2E
S11306E097E00197F1F700C0000081E00E940C033D
S11306F0AFE1BEE41197F1F700C0000086E00E946C
S11307000C038FEC97E00197F1F700C00000089507
S1130710682F81E40E94FB0182E461E041E00E94D1
S1130720CC000E94F5028FEC97E00197F1F700C02E
S113073000000895CF93DF93EC018881882331F082
S113074021960E94880389918823D9F7DF91CF915C
S1130750089581E00E940C038FE19EE40197F1F774
S113076000C000000895282F2150223070F4613118
S113077070F4662371F0813019F4962F91580AC0F1
S1130780823041F4962F915405C090E803C090E85C
S113079001C090E8892F0E940C038FEC97E0019729
S11307A0F1F700C00000089541E00E944900089557
S11307B041E00E94CC00089540E00E94CC000895DE
S11307C00E94A701089583B7886083BF8EE48CBF1D
S11307D083B7816083BF83B7846083BF789489B70C
S11307E0826089BF0895BB9A83B7886083BF80E421
S11307F08CBF83B7816083BF83B7846083BF83B7B3
S1130800806183BF0895BB9A83B7806483BF83B735
S1130810886083BF80E48CBF83B7816083BF83B764
S1130820846083BF83B7806183BF83B7806283BFE3
S11308300895BB9A83B7806483BF80E48CBF83B779
S1130840816083BF83B7846083BF83B7806183BFC4
S113085083B7806283BF089584E460E00E94D40378
S113086084E461E00E94D40384E462E00E94D4033F
S11308700E941E030E94E303CAE0D7E000E610E0F2
S11308800F2EF1E7EF2EF0E0FF2EF02D0F2EF3E800
S1130890CF2EF0E0DF2EF02DC0939600C09395008C
S11308A0D09394000E94A903C8010E949A0384E48F
S11308B060E00E94D8031BC0809198008436B8F091
S11308C0109298008091960081508093960081E068
S11308D06BE00E94B30380E20E948803809196003B
S11308E06C2F0E940605892F805D0E9488038091E9
S11308F09600882309F78FEF94E3ACE08150904091
S1130900A040E1F700C0000084E461E00E94D80345
S113091084E460E00E94DC030E94A903C7010E94F2
S11309209A031BC0809198008436B8F01092980006
S11309308091950081508093950081E06BE00E9446
S1130940B30380E20E948803809195006C2F0E947B
S11309500605892F805D0E94880380919500882375
S113096009F78FEF94E3ACE081509040A040E1F7A9
S113097000C0000084E462E00E94D80384E461E0E3
S11309800E94DC030E94A903C6010E949A031BC0B3
S1130990809198008436B8F0109298008091940069
S11309A081508093940081E06BE00E94B30380E265
S11309B00E948803809194006C2F0E940605892F61
S11309C0805D0E94880380919400882309F78FEF4B
S11309D094E3ACE081509040A040E1F700C00000F7
S11309E084E462E00E94DC0357CF1F920F920FB69B
S11309F00F9211248F93809198008F5F80939800B9
S1130A008F910F900FBE0F901F901895991B79E04E
S1130A1004C0991F961708F0961B881F7A95C9F78A
S10B0A2080950895F894FFCFBE
S1130A2872656D61696E696E672031302073656324
S1130A380072656D61696E696E67202031302073BC
S1130A4865630072656D61696E696E672020372081
S10B0A5873656300070A0A003C
S9030000FC
