S01C000042434420746F20736576656E207365676D656E742E73726563E8
S11300000C942A000C9447000C9447000C9447006D
S11300100C9447000C9447000C9447000C94470040
S11300200C9447000C9447000C9447000C94470030
S11300300C9447000C9447000C9447000C94470020
S11300400C9447000C9447000C9447000C94470010
S11300500C94470011241FBECFE5D8E0DEBFCDBF0E
S113006010E0A0E6B0E0ECE5F6E002C005900D92E9
S1130070A036B107D9F710E0A0E6B0E001C01D92A8
S1130080A036B107E1F70E9449000C942C030C94AC
S1130090000084E40E941203C0E0D0E084E46C2FEA
S11300A00E9429038FEF99E6A8E181509040A04077
S11300B0E1F700C00000CF5FCA3080F3CD2FEECF50
S11300C0823451F1833420F4813409F07BC007C0B9
S11300D0833409F43EC0843409F074C057C04130FD
S11300E069F42AB381E090E0AC0102C0440F551FCB
S11300F06A95E2F7BA01622B6ABB08952AB381E0DC
S113010090E0AC0102C0440F551F6A95E2F7BA01B2
S1130110609562236ABB0895413069F427B381E096
S113012090E0AC0102C0440F551F6A95E2F7BA0192
S1130130622B67BB089527B381E090E0AC0102C055
S1130140440F551F6A95E2F7BA016095622367BBB5
S11301500895413069F424B381E090E0AC0102C019
S1130160440F551F6A95E2F7BA01622B64BB0895E8
S113017024B381E090E0AC0102C0440F551F6A959E
S1130180E2F7BA016095622364BB0895413069F4D3
S113019021B381E090E0AC0102C0440F551F6A9581
S11301A0E2F7BA01622B61BB089521B381E090E0CC
S11301B0AC0102C0440F551F6A95E2F7BA0160957D
S11301C0622361BB0895823451F1833420F4813475
S11301D009F07BC007C0833409F43EC0843409F0BD
S11301E074C057C0413069F42BB381E090E0AC0196
S11301F002C0440F551F6A95E2F7BA01622B6BBB2C
S113020008952BB381E090E0AC0102C0440F551F68
S11302106A95E2F7BA01609562236BBB0895413099
S113022069F428B381E090E0AC0102C0440F551F8B
S11302306A95E2F7BA01622B68BB089528B381E09E
S113024090E0AC0102C0440F551F6A95E2F7BA0171
S11302506095622368BB0895413069F425B381E059
S113026090E0AC0102C0440F551F6A95E2F7BA0151
S1130270622B65BB089525B381E090E0AC0102C018
S1130280440F551F6A95E2F7BA016095622365BB76
S11302900895413069F422B381E090E0AC0102C0DA
S11302A0440F551F6A95E2F7BA01622B62BB0895A9
S11302B022B381E090E0AC0102C0440F551F6A955F
S11302C0E2F7BA016095622362BB08958234F1F0CB
S11302D0833420F4813409F04FC006C0833441F1E3
S11302E0843409F049C036C029B381E090E0062E79
S11302F002C0880F991F0A94E2F730E08223932307
S113030002C0959587956A95E2F7089526B381E032
S113031090E0062E02C0880F991F0A94E2F730E09D
S11303208223932302C0959587956A95E2F70895F1
S113033023B381E090E0062E02C0880F991F0A942F
S1130340E2F730E08223932302C0959587956A955E
S1130350E2F7089520B381E090E0062E02C0880FF2
S1130360991F0A94E2F730E08223932302C0959503
S113037087956A95E2F7089580E008958234B9F08C
S1130380833418F48134C9F505C08334E9F0843426
S1130390A1F527C02BB381E090E0AC0102C0440F6B
S11303A0551F6A95E2F7BA0162276BBB089528B31B
S11303B081E090E0AC0102C0440F551F6A95E2F75A
S11303C0BA01622768BB089525B381E090E0AC01CF
S11303D002C0440F551F6A95E2F7BA01622765BB54
S11303E0089522B381E090E0AC0102C0440F551F90
S11303F06A95E2F7BA01622762BB0895823461F01C
S1130400833418F4813469F405C0833439F08434B6
S113041041F406C06ABB089567BB089564BB0895A0
S113042061BB0895823461F0833418F4813469F433
S113043005C0833439F0843441F406C06BBB08959D
S113044068BB089565BB089562BB0895823461F06A
S1130450833418F4813471F405C0833439F084345E
S113046049F406C089B3089586B3089583B3089503
S113047080B3089580E00895823451F1833420F4E8
S1130480813409F07BC007C0833409F43EC084344E
S113049009F074C057C0413069F42BB381E090E097
S11304A0AC0102C0440F551F6A95E2F7BA01622BF2
S11304B06BBB08952BB381E090E0AC0102C0440F04
S11304C0551F6A95E2F7BA01609562236BBB0895E4
S11304D0413069F428B381E090E0AC0102C0440FDC
S11304E0551F6A95E2F7BA01622B68BB089528B3D9
S11304F081E090E0AC0102C0440F551F6A95E2F719
S1130500BA016095622368BB0895413069F425B34C
S113051081E090E0AC0102C0440F551F6A95E2F7F8
S1130520BA01622B65BB089525B381E090E0AC016C
S113053002C0440F551F6A95E2F7BA016095622321
S113054065BB0895413069F422B381E090E0AC01C9
S113055002C0440F551F6A95E2F7BA01622B62BBD1
S1130560089522B381E090E0AC0102C0440F551F0E
S11305706A95E2F7BA016095622362BB08956F70D1
S1130580823489F0833418F4813409F505C0833446
S113059089F08434E1F415C08BB3807F8BBB8BB3BB
S11305A0682B6BBB089588B3807F88BB88B3682BA6
S11305B068BB089585B3807F85BB85B3682B65BB15
S11305C0089582B3807F82BB82B3682B62BB089597
S11305D06295607F823489F0833418F4813409F59C
S11305E005C0833489F08434E1F415C08BB38F7073
S11305F08BBB8BB3682B6BBB089588B38F7088BBA0
S113060088B3682B68BB089585B38F7085BB85B3A9
S1130610682B65BB089582B38F7082BB82B3682B4D
S113062062BB0895CF93C82F60E041E00E94600050
S11306308C2F61E041E00E9460008C2F62E041E079
S11306400E9460008C2F63E041E00E946000CF9123
S10F065008950E94BF020895F894FFCFA3
S9030000FC
